:100803003031323334353637383941424344454643
:1008130000443A2D2D2D636D2049523A2D2D202071
:1008230020004F4E20204155544F2030303025209A
:0308330020200082
:03079800016700F6
:0C08FB00C28EE4F58DF58BC28FD28E22E8
:100611001208FB30910C208F58E58DC3947540F37F
:10062100804FD2941208FBE58D7007E58BC39414BB
:1006310040F5C2941208FB20910C208F34E58DC344
:10064100947540F3802B1208FB30910C208F22E52A
:100651008DC3947540F38019C28E208F14AF8DEF36
:10066100FEAD8BED241DFFE43EFE7C007D3A0201D0
:0B06710061C28EC28FC2947EFF7FFF2B
:01067C00225B
:0B02F200851424AB13AD15AF1FAE1E2A
:0602FD008E208F218B23EF
:10030300ED75F005A4F52578267C007D007BFF7A4A
:100313000879147E007F111200FE78377C007D007F
:100323007BFF7A0879257E007F111200FEE521F418
:100333007003E520F46042D3E52194E7E5209403BC
:100343005037AE20AF217C007D64120161EF243071
:10035300F528AE20AF217C007D0A1201617C007D6F
:100363000A120161ED2430F529AE20AF217C007D16
:100373000A120161ED2430F52AE5246012E523C455
:10038300540F90080393F531E523540F93F532E5A9
:1003930064700975374F753846753946E562B4019F
:1003A3000E753B46753C49753D58753E208026E5E4
:1003B300646022C3E5219414E52094004017D3E53B
:1003C300219428E5209400500C753B48753C4F75EB
:1003D3003D4C753E44E52575F064842430F540E5D5
:1003E3002575F00A8475F00A84E5F02430F541E5BB
:1003F3002575F00A84E5F02430F542E4FF74262FD6
:10040300F8E6FE74682FF8A60674372FF8E6FE7434
:09041300782FF8A6060FBF10E4D3
:01041C0022BD
:1006C900E4F520856721E56704541FF567748825DB
:1006D90021F974682521F8E6FF6760218F22E4F586
:1006E90023E521540FFFE521C4540FFD7B007A0057
:1006F900792212067D74882521F8A622220520E593
:0607090020C3942040BD56
:01070F0022C7
:10041D00E4F513F514F515F516F517F51AF51BF5A5
:10042D001CF51D74FFF51EF51FC2AFC290E4F5A8B3
:10043D00F5B8C28CC28EF5C8758911C294D291C21D
:10044D00A7C2A6C2A5F5801208361207CF120869F9
:10045D007F20788874FFF608DFFCE4F524FB120298
:10046D00F71208D88E188F197B007A0079131208AD
:10047D00BBEF60477F01E513B4451EE517601AE534
:10048D0016B51315C3E519951BFDE518951AFCC393
:10049D00ED94FAEC940050011F85131685181A85FA
:1004AD00191B751701751401EF600D7B01AD13AFAD
:1004BD001FAE1E12058B8F151202F2C3E519951D85
:1004CD00FFE518951CFEC3EF9496EE9400401D12A7
:1004DD0006118E1E8F1F1208D88E1C8F1DE4FBFD7A
:1004ED00AF1FAE1E12058B8F151202F21206C90236
:0204FD00046E8B
:10089500A2AFE433FEC2AFC2A7ED24FF92A6C2A564
:1008A5008F800000D2A7000000C2A70000E4F580F9
:0508B500EE24FF92AFEC
:0108BA00221B
:0C090700E4FD1208957F027E000200064D
:0C0913007D011208957F017E00020006A5
:100836007F327E001200067F381209077F057E0090
:100846001200067F381209077F057E001200067F18
:10085600381209077F0C1209077F061209077F0164
:030866000209077D
:050024007F0102090745
:10067D008F248B258A268927EDD39401503DE524BF
:10068D00940F5037ED60047FC080027F80E5242FEA
:10069D00FF120907AB25AA26A927120124601CE524
:1006AD0024C3941050150527E5277002052614F96B
:0C06BD00120124FF120913052480D92229
:10079B000150000151000152000259023201530075
:0307AB00015400F6
:10086900C2A8D2B2C28CC2A9E58954F04401F58963
:10087900E4F58CF58AC28DF550F552F551F553D250
:0C0889008CD288C289D2B8D2A8D2AF228B
:1008BB00C2A8AF50EF6013AE5174552EF8E612017B
:0C08CB003DE551045403F5511550D2A82E
:0108D70022FE
:030003000201B641
:0901B600C0E0C0F0C0D075D00813
:1001BF00C28CAF8CEFAD8AF510EDF511A28DE43343
:1001CF00758C00758A00C28DD28C60030202A6C3A3
:1001DF00E51194ECE510942C4034D3E5119430E5FF
:1001EF001094755029AE10AF117C007D181201616B
:1001FF008E598F5A755301755400751200744C2522
:10020F0012F876000512E512B404F20202EBE55380
:10021F0070030202EBE554131313541FF512AE597A
:10022F00AF5A7C007D0312014FC3E5119FE5109E6D
:10023F004031AE59AF5A7D0512014FD3E5119FE5FD
:10024F00109E501F744C2512F8C008E6FFE5545459
:10025F0007FE7401A80E088002C333D8FC4FD008E4
:10026F00F68039AE59AF5A7C007D0312014FEEC3B1
:10027F0013FEEF13FFC3E5119FE5109E4019AE5912
:10028F00AF5A7D0512014FEEC313FEEF13FFD3E5F7
:10029F00119FE5109E400575530080400554E554AD
:1002AF0064207038F553E54E654FF4702FF51274D6
:1002BF004C2512F8E6FF74482512F8A60F0512E533
:1002CF0012B404EBE550C394045011AF5274552F80
:0C02DF00F8A64EE552045403F5520550F9
:0702EB00D0D0D0F0D0E032CA
:1007AE00015C00016000015F130164010162000140
:1007BE006100025D0000016300015B000265000044
:10058B008E208F21EB6022BD450EE56470047F0148
:10059B0080027F008F648011BD1605756201800695
:1005AB00BD0C06E4F562756401E5647006F561F552
:1005BB005B804BE562B4010875610CE4F55B803E32
:1005CB00E521B4FF2DE520B4FF28E55B700A755BD0
:1005DB00011208D88E658F661208D8C3EF9566FF97
:1005EB00EE9565FEC3EF9458EE94024011E4F5616D
:1005FB00800CE4F55BAF21AE201207108F61AF6169
:06060B001208EBAF6122B2
:10071000EFF47002EEF46009D3EF9428EE940040F9
:10072000037F0022C3EF9414EE940040037F0A225B
:10073000D3EF9405EE940050037F1422C374149FEA
:10074000FFE49EFE7C007D0C12014F7D0F120161C3
:05075000EF2408FF2268
:1008EB00EFD3941440027F148F5CEF7002C29022FE
:1007CF00C290E4F55CF560755F13756401F562F531
:1007DF0061F55DF55EF563F55BF565F566F5C8C228
:1007EF00AD75CBFF75CA0675CDFF75CC06C2BDD2F0
:0407FF00ADD2CA228B
:1008D800A2ADE433C2ADAB5EAA5D24FF92ADAE0219
:0208E800AF035C
:0108EA0022EB
:03002B0002075574
:10075500C0E0C0D0C2CF0563E563C39404400B7508
:100765006300055EE55E7002055D055FE55FC394A8
:10077500144006755F00855C60E55C7004C290807E
:100785000DE55FC395605004D2908002C290D0D031
:03079500D0E0327F
:0B091F00EF1FAC0670011E4C70F622AA
:10000600D3EF9400EE940040147D6E7C00ED1D70DD
:0D001600011CED4C70F7EF1F70E61E80E33B
:0100230022BA
:030000000204FFF8
:0C04FF00787FE4F6D8FD7581A702054661
:10002E00E709F608DFFA8046E709F208DFFA803EB4
:10003E0088828C83E709F0A3DFFA8032E309F608A1
:10004E00DFFA8078E309F208DFFA807088828C8309
:10005E00E309F0A3DFFA806489828A83E0A3F608BD
:10006E00DFFA805889828A83E0A3F208DFFA804C97
:10007E0080D280FA80C680D4806980F2803380106E
:10008E0080A680EA809A80A880DA80E280CA8033D7
:10009E0089828A83ECFAE493A3C8C582C8CCC5834F
:1000AE00CCF0A3C8C582C8CCC583CCDFE9DEE7801F
:1000BE000D89828A83E493A3F608DFF9ECFAA9F09E
:1000CE00EDFB2289828A83ECFAE0A3C8C582C8CCF4
:1000DE00C583CCF0A3C8C582C8CCC583CCDFEADE0D
:1000EE00E880DB89828A83E493A3F208DFF980CC6F
:1000FE0088F0EF60010E4E60C388F0ED2402B40468
:10010E000050B9F582EB2402B4040050AF2323450E
:06011E00822390007E73B5
:10012400BB010689828A83E0225002E722BBFE02D9
:09013400E32289828A83E493220C
:10013D00BB010689828A83F0225002F722BBFE01A1
:02014D00F3229B
:10014F00EF8DF0A4A8F0CF8CF0A428CE8DF0A42EC4
:02015F00FE227E
:10016100BC000BBE0029EF8DF084FFADF022E4CC82
:10017100F875F008EF2FFFEE33FEEC33FCEE9DEC4B
:10018100984005FCEE9DFE0FD5F0E9E4CEFD22ED91
:10019100F8F5F0EE8420D21CFEADF075F008EF2FDB
:1001A100FFED33FD4007985006D5F0F222C398FDCC
:0501B1000FD5F0EA2269
:10050B0002041DE493A3F8E493A34003F68001F2E5
:10051B0008DFF48029E493A3F85407240CC8C333F1
:10052B00C4540F4420C8834004F456800146F6DFC0
:10053B00E4800B0102040810204080900798E47EB1
:10054B00019360BCA3FF543F30E509541FFEE493B5
:10055B00A360010ECF54C025E060A840B8E493A37C
:10056B00FAE493A3F8E493A3C8C582C8CAC583CAA7
:10057B00F0A3C8C582C8CAC583CADFE9DEE780BE5F
:0107CE00002A
:00000001FF
